S010000063616E5F746F6F6C2E73726563C5
S31500000000682AFE1F81550000115000007D55000032
S315000000107D5500007D5500007D5500000000000064
S315000000200000000000000000000000007D550000F8
S315000000307D55000000000000117800006579000081
S31500000040614C0000D94C0000554D00008918000095
S31500000050A917000011180000C9160000FFFFFFFFD6
S31500000060FFFFFFFFFFFFFFFFFFFFFFFFFFFFFFFF9A
S31500000070FFFFFFFFFFFFFFFFFFFFFFFFFFFFFFFF8A
S31500000080FFFFFFFFFFFFFFFFFFFFFFFFFFFFFFFF7A
S31500000090FFFFFFFFFFFFFFFFFFFFFFFFFFFFFFFF6A
S31500000400FFFFFFFFFFFDFFFFFFFFFFFFFFFFFFFFF8
S31500000410FFFFFFFFFFFFFFFFFFFFFFFFFFFFFFFFE6
S31500000420FFFFFFFFFFFFFFFFFFFFFFFFFFFFFFFFD6
S31500000430FFFFFFFFFFFFFFFFFFFFFFFFFFFFFFFFC6
S31500000440FFFFFFFFFFFFFFFFFFFFFFFFFFFFFFFFB6
S31500000450FFFFFFFFFFFFFFFFFFFFFFFFFFFFFFFFA6
S31500000460FFFFFFFFFFFFFFFFFFFFFFFFFFFFFFFF96
S31500000470FFFFFFFFFFFFFFFFFFFFFFFFFFFFFFFF86
S31500000480FFFFFFFFFFFFFFFFFFFFFFFFFFFFFFFF76
S31500000490FFFFFFFFFFFFFFFFFFFFFFFFFFFFFFFF66
S315000004A0FFFFFFFFFFFFFFFFFFFFFFFFFFFFFFFF56
S315000004B0FFFFFFFFFFFFFFFFFFFFFFFFFFFFFFFF46
S315000004C0FFFFFFFFFFFFFFFFFFFFFFFFFFFFFFFF36
S315000004D0FFFFFFFFFFFFFFFFFFFFFFFFFFFFFFFF26
S315000004E0FFFFFFFFFFFFFFFFFFFFFFFFFFFFFFFF16
S315000004F0FFFFFFFFFFFFFFFFFFFFFFFFFFFFFFFF06
S31500000500B004FE1F8A003000D804FE1F8D00303074
S31500000510DC04FE1F8E003040E004FE1F770114103D
S31500000520E404FE1F740114201806FE1F7601144011
S31500000530E804FE1F75011450200000002000010091
S315000005402F0000002F0001000C0001001100000028
S3150000055030000000300001002400000024000100EB
S3150000056024000200240003002400040024000500E7
S315000005701300000017000000230000002100000007
S31500000580210001000700000007000100070002002B
S315000005900700030007000400070005000700060027
S315000005A007000700120000004400000008000000D9
S315000005B00B00000041000000400000004000010068
S315000005C004000000430000002B0000002B000A007E
S315000005D02B000B002B000C002B000D002B00010044
S315000005E02B0002002B0003002B0004002B0005004B
S315000005F02B0006002B0007002B0008002B0009002B
S315000006000600000006000A0006000B0006000C00AB
S3150000061006000D0006000E0006000F000600010091
S31500000620060002000600030006000400060005009E
S31500000630060006000600070006000800060009007E
S315000006401500000015000100150002003100000031
S315000006502A00000045000000100000000301000011
S3150000066003000000030001000F0000000D00000061
S315000006702D000000420000002C0000002C000100AC
S315000006802C0002002C0003003200000028000000AD
S3150000069018000000140000001400010014000200FD
S315000006A014000300140004001400050014000600E2
S315000006B014000700140008001400090034000000AC
S315000006C0340001001600000016000100350000008D
S315000006D03600000036000100220000003300000052
S315000006E0330100002900000010B5054C237833B90A
S315000006F0044B13B10448AFF300800123237010BDEF
S315000007002404FE1F000000005C9C0000084B10B58E
S315000007101BB108480849AFF300800848036803B9CD
S3150000072010BD074B002BFBD0BDE81040184700BF9B
S31500000730000000005C9C00002804FE1F7C03FE1FD6
S3150000074000000000024B1B6803600020704700BFDA
S31500000750748E0000F0B503680D68013B2A6842609C
S31500000760022B8DB045D90446234900223423083094
S3150000077005F046FB34232149002204F13C0005F034
S315000007803FFB1D49242204F1700005F09FFA1B4926
S31500000790242204F1940005F099FA3C2238238DE8CE
S315000007A00C0004F1B80004F1F0031449012205F02D
S315000007B0DDFB2B685E680DF10C0E06F1200C30682F
S315000007C07168B268F36877460FC710366645BE464D
S315000007D0F5D1306838602B6860689B68084A1B68EA
S315000007E000680A9403A90992984718B9012323605F
S315000007F000E008200DB0F0BD5C8E0000688E0000A1
S3150000080005080000017901F0020370B503F0FF024C
S31500000810C568BBB90B0605F1940605D4304600221F
S31500000820BDE8704005F0D6BA044604F1080105F1AA
S31500000830B80005F039FC217930460022BDE8704049
S3150000084005F0C8BA05F1700630460022BDE87040D2
S3150000085005F0C0BA38B543689A6804461868536903
S315000008609847054604F1080005F022FB04F13C0018
S3150000087005F01EFB04F1700005F074FA04F1940013
S3150000088005F070FA04F1B80005F0D8FB00232846FD
S31500000890236038BD2DE9F043046885B00025039533
S315000008A01CB9082005B0BDE8F08300F108080D4624
S315000008B00446194640461F46164605F00FFB18B17A
S315000008C0142005B0BDE8F083A146032349F8703B28
S315000008D00221009003AB0122484605F059FA6368ED
S315000008E09A6818689368294632469847054620B1A3
S315000008F0404605F01FFB2846D4E70097484603AB61
S315000009000221012205F044FA054608B16425EFE705
S31500000910404605F00FFB012328462360C2E700BFCF
S31500000920F0B51F4683B01B68002401940D460446AB
S315000009301646C3B1B834204601A9002205F094FB3F
S3150000094028B10A280CBF0020642003B0F0BD3A6825
S31500000950019BB21AAB543A68013A3A60002AEAD1CE
S31500000960002003B0F0BD1A469430802105F032FA1B
S315000009700028E6D13B68002BDCD1F1E72DE9F047F2
S31500000980046884B00025039202951CB9082004B0BF
S31500000990BDE8F08700F13C098846054619464846F9
S315000009A01F46164605F09AFA18B1142004B0BDE8A1
S315000009B0F08702232B60284603AB41463246FFF7F9
S315000009C0AFFF044620BB039C002C45D105F1940AD9
S315000009D0FD21012202AB5046002C32D0009705F0D3
S315000009E0D7F9002833D1029B13F0400F14BFCB2454
S315000009F0002413F0200F18BF0C2413F0080F18BFA3
S31500000A00C824580709D513F0100F14BFC924CA24E7
S31500000A10484605F08FFA2046B9E7D90608D4002CD7
S31500000A20F6D1DA0748BF03941B0603D4039CCFE72D
S31500000A30C924EDE728464146324603ABFFF770FF6F
S31500000A40F4E7484605F076FA98B164209FE74846F1
S31500000A5005F070FA14209AE76B689A68186853686C
S31500000A60311B22464144984704460028D0D1039CB6
S31500000A70ACE7012320462B6089E700BF38B5036841
S31500000A80012B01D0082038BD1546044631B1022994
S31500000A900CD0013901290FD9002038BD0830114684
S31500000AA005F01CFA08B1142038BD38BD08301146CF
S31500000AB005F014FA0028F6D104F13C00294605F0A9
S31500000AC00DFA0028EFD138BD0368012B01D00820AC
S31500000AD0704710B50C4619B1012906D0002010BD8B
S31500000AE0083005F027FA204610BD3C3005F022FA02
S31500000AF0002010BD40B10123042103220170437080
S31500000B00C370827000207047012070472DE9F041C4
S31500000B1082B002AC002544F8045D1D4E089D37697D
S31500000B20164622469846B8479DF804302B7005466F
S31500000B3018B1284602B0BDE8F0815FB2DCB27B098D
S31500000B40203304F01F0013490122824041F823207C
S31500000B50384604F0EBFB002F11DB07F1604336014A
S31500000B6003F56143F6B283F800630B4B1B6853F839
S31500000B7037302846C3F8008002B0BDE8F081074A46
S31500000B8004F00F0336011A44F6B21676EDE700BFFD
S31500000B90B48F000000E100E04C950000FCEC00E0A2
S31500000BA030B129B11D4B42689A4203D007207047E5
S31500000BB00120704770B58268002382B004460E4655
S31500000BC04B600B602AB391681068009301938B69A0
S31500000BD069469847E278009B02F0030203FB02F3A2
S31500000BE07360E06888B1836800689B69002500959A
S31500000BF0019569469847E278009B02F0030203FBE1
S31500000C0002F32846336002B070BD4FF0FF33336005
S31500000C10F9E74FF0FF334B60E3E700BF5549435315
S31500000C2050B149B142B110B40B4B44689C4205D057
S31500000C3007205DF8044B704701207047C37803F026
S31500000C400303022B01D00020F3E7114311F0010F3B
S31500000C500CBF00200320ECE755494353F0B583B0A1
S31500000C6005460F461646FFF7DBFF044688B9EA78C5
S31500000C70A86802F0030260B183680094013A9B6998
S31500000C80019400686946D6409847009B9E4202D967
S31500000C90012003B0F0BDAB680122AA709A681868FB
S31500000CA0556821463A46B3B2A84703B0F0BD00BF27
S31500000CB030B5946883B0002C32D01468002C2FD045
S31500000CC052686AB312685AB30978D57894786FF384
S31500000CD087156FF345140229D570947023D0D17807
S31500000CE06FF30511D17019460346124A1B7802A804
S31500000CF00024142501940094ADF8063000F8045D34
S31500000D0013696A4698479DF90030213308D0069A40
S31500000D10BDF802301380079B20461C7003B030BD1F
S31500000D20012003B030BDE9B2012464F30511D1708E
S31500000D30D9E700BFB48F000010B50C4620B1836818
S31500000D4013B1DB6900689847236833B19A6822B10A
S31500000D50D2691868BDE81040104710BD08B90320D5
S31500000D6070472DE9F04F89B00024049008A81D466D
S31500000D7000F8084D0291039204F020F9374B0794CE
S31500000D809B699DF8180007A9984718B1032009B078
S31500000D90BDE8F08F079B05931946314BDFF8C890E5
S31500000DA0A1FB03ABCDE900AB074698464FEA112BF2
S31500000DB0049BB9F8006003FB06F6059BB3FBF6F44B
S31500000DC004F1FF3ABAF1FF0F3DD8534606FB04F48F
S31500000DD0B2461E461DE0B4FBFBF27F2A02FB03F37C
S31500000DE031D9002BB8BFFF331B12A3F5C333A03B89
S31500000DF0002BB8BF5B42434506DA03999846029B2F
S31500000E00C1F8009017461E702F60CAEB0404D6B1D5
S31500000E10013EE317DDE90001224607F04BF8A0F595
S31500000E20C330A03800F5C333A033002DD3D100283A
S31500000E30B8BF4042404506DA039BC3F80090029BC8
S31500000E4080461E702F46074B09F106099945AFD11A
S31500000E5042F21073984599DC002098E73C90000018
S31500000E60A0860100C68E0000788E0000F0B1E9B1C0
S31500000E703D4B42689A421BD02DE9F0473B4B90B060
S31500000E8005460E460878DA68142100230493079372
S31500000E90ADF812008DF81010089309930A9304A870
S31500000EA007A9904730B110B0BDE8F0870120704720
S31500000EB008207047079F6F6204A804F063FA0028B1
S31500000EC0F1D1BDF822302A4A0590C3F38103D35CE1
S31500000ED06B70336A002B35D01A7A93F80090EB7852
S31500000EE052BB62F38203EB709046FF22214B8DF8D2
S31500000EF00F2006937068B9F1000F2AD005F11B0385
S31500000F00F27B009301212B4604A8FFF7FFFD05F1B4
S31500000F101803327B009304A802212B46FFF7F6FD47
S31500000F20044648B3A86805F10C01FFF705FF04A8BD
S31500000F3004F05CFA2046B6E743F00403EB700DF1CB
S31500000F401408D2E7FF210B4A70688DF80F109846F7
S31500000F5006920DF10F0106AA4346FFF7FFFE04466F
S31500000F600028DFD18146C9E755494353B48F0000B5
S31500000F70C88E0000788E000005F11903727B00937D
S31500000F8004A805212B46FFF7C1FD04460028C9D158
S31500000F9005F11A03B27B009304A804212B46FFF740
S31500000FA0B5FD04460028BDD13269EB787169AA60A7
S31500000FB0012262F30103EB70327AE960022A03D15F
S31500000FC0EB7862F30103EB70D6F810C0BCF1000FAA
S31500000FD03DD0DCF804400FCC0DF12C0AD646AEE825
S31500000FE00F000CAA246800920DF1320301936246A9
S31500000FF0CEF80040304606F108010223FFF758FEFE
S31500001000044600288ED1326969785368E8781B68EF
S31500001010002900F08D8100F003000228696A00F0C3
S31500001020858111315960916893F802E0DC78106887
S315000010300A68022161F3830E6FF38304DC70514664
S3150000104083F802E09047044600287FF46BAFD6F899
S3150000105014C0BCF1000F3ED0DCF804400FCC0DF1FB
S315000010602C0AD646AEE80F000CAA246800920DF1B1
S31500001070320301936246CEF80040304606F108017D
S315000010800523FFF715FE044600287FF44BAF72696F
S3150000109069785368E8781B68002900F0678100F0DA
S315000010A003000228696A00F066810F319960916831
S315000010B093F802E0DC7810680A68022161F3830481
S315000010C06FF3830EDC70514683F802E090470446C6
S315000010D000287FF427AF04A804F0F2F800233B7041
S315000010E0BB703A7902B13B71F223FF22BB714FF418
S315000010F0784A7A7000234FF0400E03240620BA7413
S315000011000699FB719DF80FC03B727B72BB72FB7236
S315000011103B737B733B73A7F814A07B8387F813E0BC
S315000011203C773877B9F1000F40F0CD80BB7823F0DB
S315000011300303BB7087F801C0FB798A7823F040036C
S3150000114002F0010243EA8213FB71FB79CA7823F0AD
S31500001150100302F0010243EA0213FB710A79FB79DC
S3150000116002F0010223F0080343EAC203FB714B7944
S31500001170397803EA040221F0030313433B70B8F104
S31500001180000F0AD0D8F80030FF2B00F2C180FA79A0
S31500001190DBB242F00402FA71BB746A786B6A4AB336
S315000011A09A8A42F001029A829A8A42F002029A824E
S315000011B03269002A00F0CF809A8A22F470629A82FD
S315000011C069789A8A013901F00F01C2F30B0242EAEB
S315000011D001329A829A8A42F004029A829A8A5207C5
S315000011E0FCD47269002A00F0AA809A8A22F0F002E2
S315000011F09A826B6A1A78717A42EA0112D2B21A702E
S31500001200327A012A7BD0022A00F08780B17A1A78D6
S3150000121001F0010122F0080242EAC1021A70F27AD4
S315000012201AB15A7B42F002025A73316AD9B1DA799D
S31500001230887802F07F0242EAC012DA71DA79C87859
S3150000124022F0200200F0010042EA40120020DA718A
S3150000125018724A78997898780A4302F0030120F0C8
S3150000126003020A439A7033782B70F369B2692B62D2
S315000012700023EA612B616B61AB70BB8A404C23F0A3
S315000012800803BB82BB7843F01003BB702B7EE97E5C
S3150000129058B2012203F01F0302FA03F640094BB2CB
S315000012A013F1210F44F8206005D001F01F015B09FE
S315000012B08A4044F82320BB78324A43F04003BB708F
S315000012C000206A60EFE57A70FB7923F04003FB713A
S315000012D0FB7923F00803FB713B7823F003033B7093
S315000012E0BB7823F0030343F00203B9F1020FBB708E
S315000012F07FF453AFFB7943F01003FB714DE71A7887
S3150000130042F040021A709A7942F010029A717DE713
S31500001310FB7923F00403FB713FE71A7822F04002C1
S315000013201A709A7922F010029A716FE7103179E6F5
S3150000133000F003000128696AF8D1053172E6697880
S315000013409A8A013901F00F0122F0F00242EA0112F5
S315000013509A826B6A4EE769789A8A013901F00F0121
S3150000136022F4706242EA01229A8229E700F0030021
S315000013700128696A01D00E3198E6033196E600BF6E
S3150000138000E100E0554943532DE9F04182B004469F
S315000013900F461646FFF744FC10B92569082015B11B
S315000013A002B0BDE8F081D4F82480E37898F80220F2
S315000013B002F05B0288F80220E268276103F003036B
S315000013C06661D2B191680095013BD1F818C065619C
S315000013D0019510686946DE40E047009B9E4201D9B0
S315000013E00120DDE7E3689A681868D2F804C0394638
S315000013F02A46B3B2E0470028D2D194F9190003F087
S3150000140095FF627E42F3C40323F0604323F0030397
S3150000141003F1604303F5614302F01F0101228A4094
S31500001420C3F880211A6098F8023043F0A00388F8C8
S3150000143002300020B4E700BF002863D0324B426878
S315000014409A4201D0072070472DE9F043426A2F4F98
S3150000145000234360937803F00B039370437E067E6C
S31500001460857E90F81BE04FFA83FC74B269B203F0F4
S315000014701F0806F01F06012305F01F054FEA5C1C36
S315000014806409490903FA08F90CF1200C03FA06F875
S31500001490203403FA05F620314FFA8EF515F1210FA7
S315000014A047F82C9083B047F8248047F8216006D08F
S315000014B06D0920350EF01F018B4047F825309378D3
S315000014C00446907803F0020120F003030B43937067
S315000014D004F10C0102AEA068FFF72EFC00251423D0
S315000014E0019506F8043DE5612378A5623046ADF81E
S315000014F0063003F0E1FE304603F078FF284603B0DD
S31500001500BDE8F083012070475549435300E100E0F0
S31500001510C378427803F00303022B10B4036918D092
S315000015201978436A8CB27AB11A79D209FCD0DC8177
S31500001530C2780469416902F00303C91A2344416170
S3150000154003615DF8044B70471A79D209FCD0D97053
S31500001550EEE71C88436A002AE6D11A79D209E6D159
S315000015601A79D209F9D0E2E718B3374B42689A42A2
S3150000157001D007207047F0B5456AAB7813F0030336
S3150000158085B018D1C278039302F0040202F0FF0678
S315000015909AB9FF2304462D4F8DF80730084602AA54
S315000015A00DF1070133460297FFF7D8FB38B105B0B6
S315000015B0F0BD012070470120F9E703AEE9E7AB78FB
S315000015C09DF8071003F00B03AB702061AB78029A0D
S315000015D023F00303AB706970EB79917823F0400335
S315000015E001F0010143EA8113EB71EB79D17823F025
S315000015F0100301F0010143EA0113EB711179EB7954
S3150000160001F0010123F0080343EAC103EB715379AA
S31500001610297803F0030221F0030313432B7046B12C
S315000016203368FF2B0AD8EA79DBB242F00402EA718A
S31500001630AB74AB7843F05003AB70B8E7EB7923F0AB
S315000016400403EB71F5E700BF55494353788E00005C
S31500001650F0B54178476A85B0002930D0FD8A15F08B
S315000016601F0522D004463A46802699B1138AC3F351
S315000016700803E2694AB12078216A00900391029337
S315000016808DF80460684690476178013D0CD0626A27
S315000016900029EBD1E37803F00303022B0BBF138A77
S315000016A053799BB2DBB2E4E739B13B7923F04003CF
S315000016B03B713B7923F001033B7105B0F0BD012579
S315000016C004463A468026D0E7F8B5012005F06AF8C8
S315000016D0EFF30380103840B203F028FEEFF30383E4
S315000016E02F4A103B5BB2126852F833301C6824B1A3
S315000016F0E568666A35B163694BB10120BDE8F8401B
S3150000170005F04EB863788BBB6369002B44D194F91E
S315000017101A0003F00BFEA37E22495AB25209603228
S3150000172003F01F00012303FA00F041F82200B2780B
S3150000173002F07F0242F00402B270657EA07E6AB2B9
S3150000174046B2520900F01F007609203205F01F0547
S3150000175003FA05F58340002041F8225041F826306F
S3150000176020610120BDE8F84005F01AB8F78AC7F3F2
S315000017700427DF1B002F02DC09E0BD4207D06369A6
S315000017800135002BF9D02046FFF7C2FEF5E7337985
S3150000179003F07F033371AEE72046FFF7B9FEAAE7F1
S315000017A04C95000000E100E010B5012084B004F083
S315000017B0F9FFEFF30380103840B203F0B7FDEFF303
S315000017C00383124A103B5BB2126852F83330186832
S315000017D028B183780278012B06D0FFF739FF012064
S315000017E004F0DEFF04B010BDC16900248470002936
S315000017F0F5D0006A039000928DF804306846029492
S315000018008847012004F0CCFF04B010BD4C950000C1
S3150000181070B5012084B004F0C5FFEFF30383184AC6
S31500001820103B5BB2126852F833301B68EBB1596A51
S315000018301E788A78134D02F05B028A70997EDC6905
S315000018404AB25209203201F01F01012000FA01F1CB
S3150000185045F822104CB11B6A03930022022300961E
S3150000186002928DF804306846A047EFF303801038E3
S3150000187040B203F05BFD012004F092FF04B070BD9E
S315000018804C95000000E100E010B5012084B004F0A2
S3150000189089FFEFF30383264A103B5BB2126852F8C6
S315000018A033301B6823B300221C7800920192029207
S315000018B0039259785A6A31BBD97801F0030102299B
S315000018C00CBF108A507911790CBF80B2C0B289065C
S315000018D01FD520218DF80410117901F0C70111716F
S315000018E0DA692AB11B6A029003930094684690470E
S315000018F0EFF30380103840B203F018FD012004F026
S315000019004FFF04B010BD108A11798906C0F3080094
S31500001910DFD41179C90607D5117FC90754BF102135
S3150000192008218DF80410D7E704218DF80410D3E7B9
S315000019304C95000070B4104C2368020A9A4216D2E5
S315000019406568C0B200F11006012355F8225003FA6B
S3150000195006F62E420BD069B100EB0210A36853F8CD
S315000019602030C3F3400300200B7070BC7047032087
S3150000197070BC70471846FBE7EC03FE1F084B1A685D
S31500001980000A904201D30320704731B1DA6843015F
S31500001990043200209B580B8070470120704700BF1F
S315000019A0EC03FE1F084B1A68000A904201D303207D
S315000019B0704739B1DA684301043200209B581B0C8A
S315000019C00B80704701207047EC03FE1F144A136812
S315000019D0F0B4040A9C421DD25768C5B205F1100640
S315000019E0012357F8244003FA06F6264212D0A1B185
S315000019F0D468000A0434400103FA05F2005992B291
S31500001A0002EA1040904213BF002000200B700870BD
S31500001A10F0BC70470320F0BC70471846FBE700BFD8
S31500001A20EC03FE1F0C4B10B41C68000AA04200D247
S31500001A301AB903205DF8044B7047DB685DF8044B68
S31500001A40083303EB401022EA0103114041EA034147
S31500001A5041600020704700BFEC03FE1F134BF0B43B
S31500001A601C68020AA2420AD25F68C5B205F11006D6
S31500001A70012457F8222004FA06F6164202D1032062
S31500001A80F0BC70470129FAD800F47F400AD0AC4078
S31500001A9024040021DB68083303EBD0000C434460C8
S31500001AA00020EDE7A94089B20024F3E7EC03FE1F0E
S31500001AB040B101230421022201704370C370827079
S31500001AC00020704701207047012901D90320704783
S31500001AD02C4BF0B51C68020AA2424ED25D68C0B219
S31500001AE000F11006012455F82250B4402C4244D08F
S31500001AF000EB02109C681D6954F8203000293ED086
S31500001B0043F00401204E0E40EFF31087012383F3C8
S31500001B1010881E4B1A8892B222B94FF0400EEA7016
S31500001B2085F803E01A88013292B21A8087F310888A
S31500001B30CF0354F8202007D5154F22F480320F40EA
S31500001B4044F8202044F8207044F82060EFF3108118
S31500001B50012282F310881A880C4892B21AB10288C0
S31500001B60013A92B202801B889BB213B98022EB70B5
S31500001B70EA7081F310880020F0BD0320F0BD23F049
S31500001B800401BFE7EC03FE1FD5FC011F4004FE1F46
S31500001B90D5FC001F0AB9032070470B4B10B41C6814
S31500001BA0000AA04203D303205DF8044B7047DB68AC
S31500001BB022EA0104400108330A4042EA0442C250C4
S31500001BC05DF8044B00207047EC03FE1F0AB90320A2
S31500001BD070470D4B70B41C68000AA04202D3032064
S31500001BE070BC70474001DD682E582B5802EA01048C
S31500001BF03443A4B261EA02021B0C22401B041A43BE
S31500001C002A50002070BC7047EC03FE1F2DE9F041FE
S31500001C10002839D009681E4D002701EBC000B846E0
S31500001C204FF0010E8C88002335F81320A24218D0FD
S31500001C300133032BF8D108318142F3D1FF43FFB2C0
S31500001C40012003F04BFC134A92F8BB3448EA030820
S31500001C5008EA070782F8BB740120BDE8F04103F0EB
S31500001C600DBC0A6802F0B852B2F1807F05D00EFAB8
S31500001C7003F647EA0602D7B2DAE70EFA03F248EAB3
S31500001C8002085FFA88F8D3E78046FF27D8E700BF47
S31500001C90248F000000E0014070B582B002AB002442
S31500001CA003F8044D054618460E4603F091F99DF8D3
S31500001CB00430DB0702D4062002B070BD202D02D905
S31500001CC0032002B070BD012EFAD8084B1A691378AA
S31500001CD005D02B4303F0300320461370ECE703F0E6
S31500001CE0300323EA050520461570E5E7EC03FE1FE1
S31500001CF0002867D02DE9F84F4368002B5FD00146D6
S31500001D00804631F8040BFFF781FFB8F80030002B4E
S31500001D1052D02D4CDFF8B4E0A146002201204FF04E
S31500001D20400B4FF0800AD8F80430DEF8107053F8F4
S31500001D303260DEF8085003EBC20399880B0AC9B279
S31500001D4001EB0313EFF3108C80F31088218889B21E
S31500001D5011B9F97087F803B02188013189B2218061
S31500001D608CF3108816F4803F55F8231007D021F421
S31500001D70803126F4803C45F8231045F823C045F809
S31500001D802360EFF3108180F3108823889BB22BB178
S31500001D90B9F80030013B9BB2A9F8003023889BB20A
S31500001DA013B9FB7087F803A081F310880132B8F8E5
S31500001DB0003092B29342B6D80020BDE8F88F0120D9
S31500001DC0BDE8F88F012070474004FE1FEC03FE1F9C
S31500001DD0002832D04368002B2FD0F0B587B006AC70
S31500001DE0002309210193164A04F8141D154ED768DD
S31500001DF00293054603930493059302A92046B84728
S31500001E004FF00A0C029ABDF80C308DF804C002A9F6
S31500001E10F2602046059A72603360B8470122029B41
S31500001E208DF8052002A92046B360B847029B3361AE
S31500001E302846FFF75DFF07B0F0BD0120704700BFE1
S31500001E40B48F0000EC03FE1F2DE9F041304C2268F0
S31500001E50050A954284B003460CD26268C6B20F46A4
S31500001E604FF0010806F1100152F8252008FA01F199
S31500001E70114203D1032004B0BDE8F08104A902AAEF
S31500001E8041F80C2D4046ADF80C300297ADF80080B5
S31500001E9006EB0515FFF7BAFE2069A268EFF310847A
S31500001EA088F310881B490B889BB213B94026C37070
S31500001EB0C6700B8801339BB20B8084F31088FC0339
S31500001EC052F8253007D523F4803327F4803442F8BE
S31500001ED0253042F8254042F82570EFF310820123A1
S31500001EE083F310880B880B4C9BB25BB90B889BB2B3
S31500001EF013B98021C370C17082F31088002004B02A
S31500001F00BDE8F0812388013B9BB22380EEE700BF4A
S31500001F10EC03FE1F4004FE1F012901D90320704770
S31500001F202C4BF0B51C68020AA2424ED25D68C0B2C4
S31500001F3000F11006012455F82250B4402C4244D03A
S31500001F4000EB02109C681D6954F8203001293ED030
S31500001F5023F00101204E0E40EFF31087012383F397
S31500001F6010881E4B1A8892B222B94FF0400EEA70C2
S31500001F7085F803E01A88013292B21A8087F3108836
S31500001F80CF0354F8202007D5154F22F480320F4096
S31500001F9044F8202044F8207044F82060EFF31081C4
S31500001FA0012282F310881A880C4892B21AB102886C
S31500001FB0013A92B202801B889BB213B98022EB7061
S31500001FC0EA7081F310880020F0BD0320F0BD43F0D5
S31500001FD00101BFE7EC03FE1FD5FC011F4004FE1FF5
S31500001FE0D5FC001F024658B1064B07491B68002B5B
S31500001FF008BF0B460020596803EB81031360704746
S31500002000012070470004FE1FF490000088B10A4BBF
S315000020101B6863B15A6800F1100103EB820353F8A1
S31500002020042F40F8042B8842F9D1002070471C2069
S3150000203070470120704700BF0004FE1F70B36AB3EB
S31500002040174BF0B51E681EB3164B07781B680024A5
S3150000205004E00134B44203F1080319D09D79BD426E
S31500002060F7D193F805E04588B5EB9E0FF1D1DD7900
S3150000207090F801E005F00F0CF445EAD1B1EB151F1D
S31500002080E7D19B881470C3F3090353800020F0BD89
S31500002090DF21FF23117053800B20F0BD0120704714
S315000020A08404FE1F4C95000020B1034B1B6803609F
S315000020B00020704701207047CC8F000070B42A4C76
S315000020C0216851B1234604F57F70002201E053F8E0
S315000020D0041F83420A44FAD11AB100BE1D2070BC07
S315000020E07047224D22482A600368190CB1F5807F9B
S315000020F002D0002070BC7047196801390331F8D846
S315000021001C495E6A8E42F4D12B6001686368486898
S3150000211004EB830301EB800101F12300233301214A
S315000021204FF47E4503E0013201310138013B25FAC7
S3150000213002F4E40707D5072A10D0082A07D01E782C
S315000021400478A642C9D11029EDD10020D2E704783F
S31500002150372CE8D01E78A642E5D0BEE706781C7874
S31500002160A642E0D2B9E700BFF49000000004FE1FCB
S315000021709CB17F405237465300285ED000295CD080
S315000021808A4B2DE9F0439A6890F800C003EB82026F
S315000021909478A44537D24FEA1C1802EB88060CF057
S315000021A00F073589D2F804E025FA07F919F0010F6F
S315000021B029D0072FB67A09D902EB88080CF0070751
S315000021C098F80BC00CF00F0C66442D0ADFF8E0817E
S315000021D0DFF8E0C118F80780744F08EA05052409FE
S315000021E01CF80550023402EB8402AC1902EB4405DC
S315000021F032F814206C78C2F30902250603EB820339
S3150000220005D4002B4BD14FF4AF60BDE8F08317F82F
S31500002210222045785208FDB14FF0020E0126042710
S315000022201C78E40705F1FF3552D5052A00F2BB807C
S31500002230DFE802F0332D211C1A05012070479A7839
S315000022401EFB0264033204EB9202920013441A78D6
S3150000225054082246002DE3D1042A00F2A180DFE8CB
S3150000226002F0636363503B000822EFE79A7817FB9E
S3150000227002629200EAE793F804C09C7814FB0CF221
S31500002280D41C0CF1030204EB92029200DEE71A79E9
S31500002290033222F003020C32D8E70C22D6E7447848
S315000022A0B4B9DC78C4F303144C72DC780125C4F3AA
S315000022B003048C728D804088002843D137F8222091
S315000022C00EEB02220A609B78CB800872C86015E08C
S315000022D040F27950BDE8F083DA78C2F303124A720D
S315000022E0DA78C2F303028A725878C88000228A809C
S315000022F00A72CA605B680B608307E9D50020BDE8F7
S31500002300F083DA78C2F303124A72DA78C2F3030270
S315000023108A725A78CA809A788A8004330420002206
S31500002320CB6008720A60E9E7DC78C4F303144C72E8
S31500002330DC78C4F303048C721D79ACB28C804088BF
S31500002340844203D840F27A50BDE8F083DC889E6868
S31500002350012A04FB00640C6019D0022A07D05C78BD
S31500002360CC8000230B72CB60002CEBD0C6E71C1888
S31500002370EA1C247BCC809D780D72920805FB002018
S3150000238003EB80030C33CB60002CDBD0B6E70344B1
S3150000239000221C7BCC800A72CA60002CD2D0ADE72A
S315000023A06420BDE8F083002250E700BFF4900000EF
S315000023B02C8F0000348F0000034B04301B6823F879
S315000023C020100020704700BF4404FE1F034B021D6F
S315000023D01B68002023F82200704700BF4404FE1F3C
S315000023E0034B1A68137863F07F031370002070475D
S315000023F04404FE1F034B1A68137803F07F0313701F
S31500002400002070474404FE1F20B1034B1B68036085
S315000024100020704701207047EC8F000060B1012852
S3150000242008D1094B1B6800204021412218711971FF
S315000024301A71704701207047034B1B6840214122E7
S31500002440987099709A7070474404FE1F002836D021
S3150000245070B51C4986B000230B22019302930393A7
S31500002460049305930546CB688DF8042001A802A9BC
S315000024709847044608B106B070BD134E029B336000
S3150000248001A802F01DFF6B6873B130682346AA6885
S3150000249012F8231002EB83020431528820F821201F
S315000024A06A6801339A42F2D828780028E3D0326865
S315000024B01378002063F07F03137006B070BD01200F
S315000024C0704700BFB48F00004404FE1F062070470B
S315000024D00620704790B10A4B02689A4201D0072045
S315000024E0704790F90630074AC033116851F8232027
S315000024F022F0807241F823200020704701207047A7
S31500002500004354444804FE1F20B1034B1B6803607C
S3150000251000207047012070471890000010B31A4B36
S3150000252002689A4201D007207047D9B1174B1B6841
S31500002530DB8900229BB28A7190F9062018041AD40E
S31500002540134B53F82230D87800F0C00080280BD007
S31500002550DB8940289BB28B8013D038B94FF4803387
S315000025600B607047012070479B898B804FF4807306
S315000025700B60002070475BB2934204BF01238B714E
S31500002580DEE7DBB28B80F1E7004354444C04FE1FC8
S315000025900000FE1F0346D8B10E4A0168914201D0E1
S315000025A00720704730B490F906200B490B4D0C6894
S315000025B0C032002154F8220020F0807044F8220036
S315000025C093F90620084645F82210196030BC70477A
S315000025D001207047004354444804FE1F0000FE1FBC
S315000025E058B11C4B02689A4209D00720704791687F
S315000025F0890702D15268920713D00120704790F9DB
S315000026000630154A52F8232091680029F5D0516802
S315000026100029F2D0D17801F03001102912D02029FA
S31500002620E5D00E4AC033126852F8231021F48031E7
S3150000263042F8231052F8231041F0807142F823101B
S31500002640002070479168C907D7D45268D007E8D5EB
S31500002650D3E700BF004354440000FE1F4804FE1F9A
S315000026602DE9F04182B001919DF820700092BDF8ED
S31500002670245070B190F90640294A52F82410C978BE
S3150000268001F0C001802903D0062002B0BDE8F08128
S315000026901DB9012002B0BDE8F081002BF9D0214917
S315000026A006688E4201D00720EFE71F4E1F49D6F875
S315000026B000E0D1F80080C0345EF8241021F080716B
S315000026C04EF8241098F8001021F0100188F8001038
S315000026D0019990F9064019B152F824600199716088
S315000026E0009919B152F824600099B16052F824108B
S315000026F0CC788D81CB818B7BCB7367F30514CC7043
S31500002700FFF76EFF98F80030002843F0100314BF5F
S315000027101320002088F8003002B0BDE8F08100BF29
S315000027200000FE1F004354444804FE1F4C04FE1FD5
S3150000273000283AD0002938D00B68002B35D0DA783B
S3150000274012F0C00F04D0DB899BB2B3F5807F2CD882
S31500002750514B02689A422AD02DE9F0474F4E337802
S3150000276086B08046894623B34D4B1D68B9F8046090
S31500002770002302E00133702B35D003F1C004DFB231
S3150000278055F82420C2F308029642F3D1454955F87C
S31500002790242051F82300C2F30802A8F804200028D8
S315000027A049D0082006B0BDE8F08701207047082010
S315000027B070473D4901930822CC6802930393049322
S315000027C005938DF8042001A80DEB0201A04700280F
S315000027D0E8D1364D029B2B6001A802F0D3FD0746D7
S315000027E058B10A20DEE7D5F87C320B20C3F3080384
S315000027F0A8F8043006B0BDE8F087DFF8A8A001A865
S3150000280002F05EFD39464FF4E072504605F02AFEAE
S315000028102B68C3F804A01A7B062542F001021A733E
S315000028208DF8045001A802A9A0471D4A029D156013
S31500002830012333709AE7D9F8002000E01032D078EF
S3150000284010F0C00F1CBF907BD073907810F0C00FB3
S31500002850F4D1164A104D1468227822F01002227024
S3150000286099F80600D9F8002041F8232088F8067068
S31500002870C8F8005020B9237843F01003237091E77D
S315000028804046FFF7ADFE2378002843F0100314BF3F
S3150000289013200020237085E7004354445004FE1F94
S315000028A04804FE1F0000FE1FB48F00004C04FE1FEC
S315000028B0F0B583B001910092002851D090F90640FE
S315000028C02A4951F82450EA7812F0C00206D1284A63
S315000028D0056895420CD0072003B0F0BD13B913204C
S315000028E003B0F0BD224E0768B742F4D1802A33D038
S315000028F0204D214A2E681568C03456F8242022F04F
S31500002900807246F824202A7822F010022A70019A52
S315000029104AB390F90620019E51F822406660009C59
S315000029201CB151F82240009EA66051F82210CA78C8
S3150000293002F0C002802A0DD002B9CB81FFF750FE0B
S315000029402B78002843F0100314BF132000202B70AF
S3150000295003B0F0BD8B81F1E7EA8992B2002AC7D1B4
S31500002960012003B0F0BD90F90620D8E70000FE1F55
S31500002970004354444804FE1F4C04FE1F094A0A4BF8
S3150000298012680A48916910B4D46919604FF400427C
S315000029900021DC60586059619A601A615DF8044B49
S315000029A0704700BF1C04FE1F0404FE1F00127A00BD
S315000029B0374B1B6893F8283013F030023DD0102AAD
S315000029C00DD0202A3AD0DFED337A334AF0EE676A2B
S315000029D067EEA67AFCEEE77AC2ED057A7047028DBD
S315000029E02E4902F0030231F8121000294CD05B0682
S315000029F010B44AD5038D13F0100F0CBF0324002426
S31500002A00254A038D52F824005DF8044B07EE900A20
S31500002A10B8EE677A07EE901AB8EE676AC3F3052335
S31500002A20C7EE067A013306EE903AFAEEEF6A67EEE3
S31500002A30A67AFCEEE77AC2ED057A704790F82B305D
S31500002A40174A9B0932F813100029F6D0124A90F85B
S31500002A502B30D2ED037A03F01F03B8EE677A06EE49
S31500002A60903A07EE901AF8EE666AB8EE676AF7EEE5
S31500002A70007A76EEA76AC7EE067A67EEA67AFCEECD
S31500002A80E77AC2ED057A704770470324B8E700BFBE
S31500002A901C04FE1F000000000404FE1F249000001A
S31500002AA01C900000F8B50D4B1B68064693F82050A5
S31500002AB093F8217000200C4602F010FD96F81324BE
S31500002AC0E9B2BC400C4022EA010344EA030186F85D
S31500002AD013140020BDE8F84002F0D0BC1C04FE1F11
S31500002AE0F8B50D4B1B68064693F8225093F82370F1
S31500002AF000200C4602F0F2FC96F88124E9B2BC40B4
S31500002B000C4022EA010344EA030186F881140020FE
S31500002B10BDE8F84002F0B2BC1C04FE1F38B50546FD
S31500002B200C46002002F0DAFC052C0AD8DFE804F097
S31500002B3019242F033A0E95F8323023F0010385F855
S31500002B4032300020BDE8384002F098BC95F82A30B3
S31500002B5023F0010385F82A300020BDE8384002F052
S31500002B608DBC95F8363023F0010385F83630002009
S31500002B70BDE8384002F082BC95F8383023F00103F6
S31500002B8085F838300020BDE8384002F077BC95F86B
S31500002B90903423F0010385F890340020BDE83840D6
S31500002BA002F06CBC95F8803423F0010385F880347C
S31500002BB00020BDE8384002F061BC00BF38B50546CC
S31500002BC00C46002002F08AFC052C0AD8DFE804F047
S31500002BD019242F033A0E95F8323043F0010385F895
S31500002BE032300020BDE8384002F048BC95F82A3063
S31500002BF043F0010385F82A300020BDE8384002F092
S31500002C003DBC95F8363043F0010385F83630002098
S31500002C10BDE8384002F032BC95F8383043F0010385
S31500002C2085F838300020BDE8384002F027BC95F81A
S31500002C30903443F0010385F890340020BDE8384015
S31500002C4002F01CBC95F8803443F0010385F880340B
S31500002C500020BDE8384002F011BC00BF03290ED0A9
S31500002C60052907D009B10020704790F83C0000F014
S31500002C700100704790F83C00C0F34010704790F890
S31500002C803C00C0F3C000704705292ED8DFE801F0EC
S31500002C900A11181F260390F82A0000F0010080F0A0
S31500002CA00100704790F8360000F0010080F0010046
S31500002CB0704790F8380000F0010080F0010070477E
S31500002CC090F8900400F0010080F00100704790F841
S31500002CD0320000F0010080F00100704790F8800497
S31500002CE000F0010080F0010070470020704700BF2F
S31500002CF0036A90F82630704738B5054600200C4622
S31500002D0002F0ECFB95F8133404F0010123F04003C4
S31500002D1043EA811185F813140020BDE8384002F01B
S31500002D20ADBB00BF38B505460020144602F0D6FB01
S31500002D3095F8A22004F00F0422F00F02144385F840
S31500002D40A2400020BDE8384002F098BB084B1B6843
S31500002D5093F8283013F0300F04D104288CBF0020DC
S31500002D600120704705288CBF00200120704700BF56
S31500002D701C04FE1F06288CBF00200120704700BFE0
S31500002D8090F8260000F00700704700BF38B50546EA
S31500002D9000200C4602F0A2FB95F8261004F007046A
S31500002DA021F007010C4385F826400020BDE8384095
S31500002DB002F064BB074B1B6893F828305B0601D40E
S31500002DC003207047038D13F0100F0CBF0320002063
S31500002DD0704700BF1C04FE1F38B5044600200D4690
S31500002DE002F07CFB238D032D0CBF23F0100343F070
S31500002DF0100323850020BDE8384002F03FBB00BF2A
S31500002E0038B5224C2DED028B236893F8283003F059
S31500002E103003102B0546B0EE408A1CD0202B02D082
S31500002E20BDEC028B38BD002002F058FBFCEEC87AE0
S31500002E3095F82B1017EE903A013B03F01F0221F094
S31500002E401F03134385F82B30BDEC028B0020BDE831
S31500002E50384002F013BB002002F040FB78EE087AFF
S31500002E602A8DFCEEE77A22F47C5217EE903A013B6B
S31500002E7003F03F0342EA03232B85002002F0FEFA0B
S31500002E80236893F8283003F03003C7E71C04FE1FBD
S31500002E9070B51E4C236893F8283003F03003102BCE
S31500002EA082B0054619D0202B01D002B070BD184B58
S31500002EB0002033F8114002F011FB95F82B3004F096
S31500002EC0030403F03F0343EA8413002085F82B3004
S31500002ED002B0BDE8704002F0D1BA0E4B019100205D
S31500002EE033F8116002F0FAFA2B8D06F0030623F090
S31500002EF003031E432E85002002F0C0FA23680199C1
S31500002F0093F8283003F03003CDE700BF1C04FE1F02
S31500002F10349000002C90000038B51A4B1A6892F8CD
S31500002F20293092F82A200546180748BF08784FF03E
S31500002F30000448BF60F30E34D80644BF487860F3F7
S31500002F400A24980644BF887860F30614580644BFDE
S31500002F50C87860F30204D20744BF0A7962F31244C8
S31500002F601B0644BF4B7963F31E748B79002063F311
S31500002F701A6402F0B3FA2C620020BDE8384002F071
S31500002F807DBA00BF1C04FE1F036AC3F302330B7035
S31500002F90036AC3F302234B70036AC3F302138B70F5
S31500002FA0036A03F00703CB70036AC3F302430B7192
S31500002FB0036AC3F302734B71036AC3F302638B7133
S31500002FC0704700BF144B42781B6893F82410914257
S31500002FD01ED393F8262090ED017A07EE902AF8EE9C
S31500002FE0677AF4EEC77AF1EE10FA11D493F8253029
S31500002FF007EE903AF8EE677AB4EEE77AF1EE10FA59
S3150000300006D40078032805D0B0FA80F0400970474E
S3150000301000207047012070471C04FE1F062921D896
S31500003020DFE801F0080C1014181C0400006AC0F355
S3150000303002607047006AC0F302307047006AC0F34E
S3150000304002207047006AC0F302107047006A00F061
S3150000305007007047006AC0F302407047006AC0F379
S31500003060027070470020704710B50446FFF7D6FF80
S3150000307094F82630034A03F0070352F8233023FA64
S3150000308000F010BD0404FE1F024B53F82000C84098
S31500003090704700BF0404FE1F30B5044683B001200C
S315000030A00D4602F01BFA02A8002300F8013D01F0CC
S315000030B073FE94F8AA30D806FBD494F8A030D9064B
S315000030C0F7D494F8AA3023F0010384F8AA3094F8D0
S315000030D0AA30DA06FBD494F8A030DB06F7D4042D28
S315000030E02BD094F8A02005F0030322F0030213432B
S315000030F084F8A03094F8AA30D806FBD494F8A0300F
S31500003100D906F7D494F8AA30042D0CBF43F0010376
S3150000311023F0010384F8AA3094F8AA30DA06FBD427
S3150000312094F8A030DB06F7D49DF8070001F048FEBE
S31500003130012002F0A3F903B030BD94F8A03043F0AB
S31500003140030384F8A030D5E790F8AA30DB075ABF0E
S3150000315090F8A00000F003000420704710B5044664
S31500003160002002F0BBF994F8403063F07F0384F846
S31500003170403094F8403043F0010384F8403000209A
S31500003180BDE8104002F07AB910B50446002002F0FE
S31500003190A5F994F8403023F0010384F8403094F800
S315000031A0403003F07F0384F840300020BDE8104033
S315000031B002F064B990F84000C009704790F84100E9
S315000031C000F00100704700BF38B590F8413013F0A9
S315000031D0010401D1002038BD0546002002F07EF929
S315000031E095F8413023F0010385F84130002002F0C4
S315000031F045F9204638BD00BF38B5054600200C46C7
S3150000320002F06CF995F8301004F0010421F0010188
S315000032100C4385F830400020BDE8384002F02EB956
S3150000322010B50446002002F059F994F8523043F0E4
S31500003230010384F852300020BDE8104002F01EB9A8
S3150000324010B50446002002F049F994F8523023F0F4
S31500003250010384F852300020BDE8104002F00EB998
S3150000326070B5044600200D46164602F037F994F86C
S315000032703E3003F07F0384F83E3094F83E3006F08B
S31500003280070223F0700343EA021284F83E2094F802
S315000032903E1005F0070521F007010D4384F83E5066
S315000032A00020BDE8704002F0E9B800BF10B5044642
S315000032B0002002F013F994F83E3063F07F0384F89F
S315000032C03E300020BDE8104002F0D8B810B50446E4
S315000032D0002002F003F994F83E3003F07F0384F8EF
S315000032E03E300020BDE8104002F0C8B810B50446D4
S315000032F0002002F0F3F894F8533043F0010384F809
S3150000330053300020BDE8104002F0B8B810B50446AE
S31500003310002002F0E3F894F8533023F0010384F818
S3150000332053300020BDE8104002F0A8B838B5054675
S3150000333000200C4602F0D2F895F8243004F007017C
S3150000334023F0700343EA011185F824100020BDE83C
S31500003350384002F093B800BF124B70B41D681A686B
S3150000336092071BD50021104C196094F823200138D0
S31500003370B0F1807FD2B20DD2F026072502F0F0021E
S31500003380586084F8236099601D6084F8232001202A
S3150000339070BC70471D60084670BC7047012070BC49
S315000033A0704700BF10E000E000ED00E090F85030FC
S315000033B001F00F0123F00F03194380F850107047F6
S315000033C090F8500000F00F00704700BF90F85030A2
S315000033D063F07F0380F85030704700BF90F850309C
S315000033E003F07F0380F85030704700BF90F850001C
S315000033F0C009704738B5054600200C4602F06EF845
S3150000340095F8A51004F0070421F007010C4385F890
S31500003410A5400020BDE8384002F030B8024B1B68DA
S3150000342003600020704700BFA490000030B52A4C0E
S3150000343087B0204601F0D2FD06A8284B00250322BE
S315000034400095DB6800F8182D02A9029503950495EE
S3150000345005959847029860604FF6FF7329460193D9
S31500003460FFF712FC28B910E0019B43B1019B013B19
S31500003470019360680021FFF7F1FB0028F4D0019B5F
S315000034801BB94FF4CD7007B030BD60680621FFF759
S31500003490B1FF4FF6FF730193FFF770FA60680421DE
S315000034A0FFF78CFB04E0019B43B1019B013B0193B9
S315000034B060680421FFF7E8FB0028F4D1019B002B8C
S315000034C0DFD0606804210522FFF712FC6068002146
S315000034D0FFF706FB0020D6E71C04FE1FB48F000092
S315000034E070B5064C054660680E46FFF749FC314646
S315000034F028706068FFF748FD002070BD1C04FE1FA1
S3150000350070B582B000294CD00546002846D0334C11
S315000035106068FFF719FE042806463FD060686946D2
S31500003520FFF732FD23689A680AB1032E4AD0DA689B
S3150000353052B3022E28D193F829205969160703D5CC
S315000035409DF8000088423AD3D00603D59DF80100C5
S31500003550884234D3960603D59DF8020088422ED3BE
S31500003560500628D4120603D59DF805208A4226D394
S3150000357093F82A30DB0703D59DF804308B421ED31F
S315000035809DF806308B421AD32946012001F038FDFA
S315000035906068FFF7E3FD002002B070BD012002B0B5
S315000035A070BD0E4D6868FFF709FE044680B14FF402
S315000035B0CB7002B070BD9DF803008842D2D20520C0
S315000035C002B070BD93F8292019691007B8D4BBE77B
S315000035D06868FFF7D9FD2046E1E700BF1C04FE1F1F
S315000035E038B5124C6068FFF7E9FD78B16068FFF7FF
S315000035F0C7FB236893F8283013F0300F054603D035
S315000036005B0608D405280DD0032D0BD06068FFF7A4
S31500003610DBFD002038BD6068FFF7CCFB052DF3D13C
S315000036200328F3D140F2971038BD00BF1C04FE1FDB
S3150000363008B5034B01465868FFF7DEFD002008BDBC
S315000036401C04FE1F08B5034B5868FFF7E9FD002070
S3150000365008BD00BF1C04FE1F08B5034B5868FFF7E2
S31500003660EFFD002008BD00BF1C04FE1F08B5044B7B
S315000036700A4601465868FFF7F3FD002008BD00BF63
S315000036801C04FE1F08B5034B5868FFF70FFE002009
S3150000369008BD00BF1C04FE1F08B5034B5868FFF7A2
S315000036A015FE002008BD00BF1C04FE1F38B50446E9
S315000036B0FFF74CFB08B9032038BD631E012B11D957
S315000036C0042C0FD02CB1032C03D0052C01D00020E4
S315000036D038BD114D21466868FFF7D6FA78B94FF420
S315000036E0C87038BD0C4B21465868FFF7CDFA40F23A
S315000036F09113002814BF18464FF4C87038BD686887
S315000037002146FFF7ABFA40F2931300280CBF184688
S315000037104FF4C97038BD00BF1C04FE1F70B50646C5
S315000037204FF6FE7440F2931501E0013C0DD0304691
S31500003730FFF7BCFFA842F8D040B16FF4C873C318B6
S315000037409BB2022B38BF002070BD284670BD00BF5B
S3150000375070B582B00D460446FFF7F8FA10B903209B
S3150000376002B070BD5C4E052C2146706815D0FFF77F
S315000037708BFA18B140F2911002B070BD012C4ED9EF
S31500003780032C23D0631E012B65D9042C2BD0002CCF
S3150000379067D0032C1FD00020E2E7FFF775FA002858
S315000037A044D1002D39D07068FFF7EAFA0528E1D038
S315000037B02846FFF707FC0028D1D070682978FFF764
S315000037C063FA002854D14FF4CA70C9E77068FFF74E
S315000037D0BBFC042828D070682146FFF73FFA58B38F
S315000037E040F29310BCE721467068FFF797F94FF651
S315000037F0FF73019304E0019B43B1019B013B0193DD
S3150000380070680421FFF740FA0028F4D0019B002BD2
S315000038100CBF4FF4CD700020A2E70120A0E770682E
S31500003820FFF792FC0428ADD1052099E77068FFF7F1
S31500003830BFF840F2911093E73368706893F8271049
S31500003840FFF730F970680021FFF756FA7068032118
S315000038500922FFF767FA70682146FFF75FF9002033
S315000038607EE770682146FFF7F9F90028B8D1F2E73C
S3150000387021467068FFF7F2F90028B1D1336893F852
S3150000388028305B0603D570682978FFF7A5FA6978B2
S315000038907068114CFFF7FCFA95ED010A7068FFF7A6
S315000038A0AFFA7068FFF784F8336893F8281005209C
S315000038B001F00F01FFF7E8FB33685B68984288BFA9
S315000038C00021606898BF0121FFF7E6FB70680521BB
S315000038D0FFF724F95FE700BF1C04FE1F70B582B036
S315000038E00446FFF733FA10B9032002B070BD2C4D21
S315000038F06868FFF745FA84422BD0052824D0012CAE
S315000039002AD06868264E2146FFF7BEF9D0B1022CB0
S3150000391014D0042C29D01CB1032C01D0052C11D1B4
S3150000392068681F4D2146FFF799F938B940F29310A0
S31500003930DBE770682146FFF7A7F918B168682146EA
S31500003940FFF73CF90020D0E76868FFF733FAA0429A
S31500003950D5D140F29110C8E76868114EFFF72AFCEE
S315000039600028E6D040F29510BFE770682146FFF7C1
S3150000397025F94FF6FF73019304E0019B43B1019BC8
S31500003980013B019368680421FFF77EF90028F4D112
S31500003990019B002B0CBF4FF4CD700020A5E700BFA4
S315000039A01C04FE1F01280FD0022801D000207047FA
S315000039B008B508460021FFF7CBFE40B140F291134F
S315000039C0984208BF002008BD0846FFF787BF0020C1
S315000039D008BD00BF70B500240C600D460646FFF713
S315000039E0C9F910B90324204670BD044B3146586806
S315000039F0FFF73AFB2860204670BD00BF1C04FE1F7F
S31500003A0038B5114D2B6893F8290010F0010000D14C
S31500003A1038BD002001F062FD68680C4CFFF7D6FC4B
S31500003A2001E06CB1013C6868FFF7E0FC0028F8D0C3
S31500003A30002001F023FD002C0CBF1420002038BD0F
S31500003A4001F01CFD1420E3E71C04FE1FFFFF0F001E
S31500003A5038B5114D2B6893F8290010F0010000D1FC
S31500003A6038BD002001F03AFD68680C4CFFF7B6FC43
S31500003A7001E064B1013C6868FFF7B8FC0028F8D1A2
S31500003A8001F0FCFC002C0CBF1420002038BD2046A1
S31500003A9001F0F4FC1420E3E71C04FE1FFFFF0F00F7
S31500003AA0F8B51C4D2B6893F8293013F0010324D088
S31500003AB0194B1E5CFF2E01D10320F8BD002001F03A
S31500003AC00DFD6868154CFFF791FC0746FFF7C0FF30
S31500003AD068683146FFF76AFC01E09CB1013C686802
S31500003AE0FFF76EFC8642F8D14FB9002001F0C6FC04
S31500003AF0002C0CBF14200020F8BD1846F8BDFFF7B7
S31500003B007FFFF2E7002FFAD1384601F0B7FC142008
S31500003B10F8BD00BF1C04FE1F9C900000FFFF0F00B5
S31500003B2008B5054B1A6892F82920920702D55868FD
S31500003B30FFF7DCFB002008BD1C04FE1F08B5054B83
S31500003B401A6892F82920920702D55868FFF7DEFB1B
S31500003B50002008BD1C04FE1F08B5064B1A6892F823
S31500003B602920520703D501465868FFF7DFFB0020DE
S31500003B7008BD00BF1C04FE1F08B501F08DF907EE55
S31500003B80900AB8EE677AF7EE007A87EE877ADFED6D
S31500003B90097ADFED096A67EE277AC6EEA77AFCEEA8
S31500003BA0E77A17EE900AFFF7D7FB00280CBF122022
S31500003BB0002008BD0024744900401C4608B90320B3
S31500003BC07047FFF7D9BF00BFF0B587B00C46054672
S31500003BD0FFF7BCF810B9032007B0F0BD002C75D074
S31500003BE0664EA179326892F829301F0767D4D80645
S31500003BF002D560788842EED31F0602D563798B42E0
S31500003C00E9D392F82A30D80702D523798B42E2D33A
S31500003C10042D58D0002328468DF808308DF814302E
S31500003C20FFF732FA062103907068544FFFF71CFA2B
S31500003C30049002A801F040F90028CDD17868FFF77A
S31500003C409FF8854205D0002D42D0032D40D0052D8A
S31500003C503ED07068494F0021FFF71EFA706869462A
S31500003C60FFF792F99DF80620A3799A4243D221469E
S31500003C707868FFF751F978682946FFF787F801F069
S31500003C800BF93F4B042D18603ED0022D4CD0012D70
S31500003C9053D0032D56D0052D67D006217068FFF747
S31500003CA0E3F90123049002A88DF8083001F004F925
S31500003CB00446002890D1FFF75FFF20468CE7207866
S31500003CC0884288D393E761B1052085E7012083E721
S31500003CD070682946FEF7C2FF0028BAD140F2931059
S31500003CE07AE76379002BEFD17068FFF763FA002853
S31500003CF0EAD1A1798EE778682946FFF747F8786810
S31500003D002146FFF709F9BAE733681C4993F82820DA
S31500003D10120625D49A685AB95B68002BBDD0706824
S31500003D200121FFF7B9F9B8E733689A68002AF3D09A
S31500003D3070680321FFF7B0F9AFE733685B68002BC3
S31500003D40ABD0ECE733685A68904201D9002AA4D177
S31500003D509B6898420ED9002B9FD0002AE8D0DEE758
S31500003D6048682946FFF798F997E733685B689842F1
S31500003D7093D8D4E7002B90D0DAE700BF1C04FE1FCF
S31500003D80A004FE1F2DE9F04786B006AA002302F81C
S31500003D90113D054607788DF81030104604A98DF8B8
S31500003DA011308DF812308DF813308DF814308DF8EF
S31500003DB015308DF81630FFF793FB95F815E0EE7C7D
S31500003DC0297DEA7DAB7D2C7E8DF808E038468DF89E
S31500003DD00A608DF809108DF80B208DF80C308DF8DF
S31500003DE00D40FEF7B3FF18B9032006B0BDE8F08713
S31500003DF02B7806AA134413F8103C012BF4D0022C9E
S31500003E003FD0DFF8E080D8F8003093F8283013F080
S31500003E10300F14BF06260526002440F2911905F13D
S31500003E20040A052CE1B246D002AB185DFFF7BAFDD5
S31500003E3008B14845D9D10134B442F2D13846FFF72A
S31500003E406DFC0028D1D105F10C013846FFF7BCFE08
S31500003E500028CAD19DF80740A74210D006AB2344DC
S31500003E6013F8100C012820D0D8F80400FEF7A2FFA2
S31500003E7006AB0344014613F8100C01280ED00020AF
S31500003E80B3E72879FEF762FF0028ADD02B7906AAA2
S31500003E90134413F8103C012BB3D1A5E7052CEED142
S31500003EA08F42ECD0FFF77EFD9FE72146FFF77AFDB4
S31500003EB00028D9D099E79DF80D30022BB4D1287986
S31500003EC00021FFF745FC08B148458ED12879FFF758
S31500003ED025FC5146002888D10520FFF739FC00282B
S31500003EE0A9D0A6E71C04FE1F30B5B0F8403883B051
S31500003EF041F2883223F44073A0F840380546012485
S31500003F00019209E0019B6BB101F0E4F9019B013BD1
S31500003F10002B08BF00240193B5F842380120DB05C9
S31500003F200146EFD4204603B030BD00BF30B5B0F82F
S31500003F30403883B023F4407341F2883243F400736F
S31500003F40A0F8403805460124019209E0019B6BB1B7
S31500003F5001F0C0F9019B013B002B08BF002401932F
S31500003F60B5F8423801209B050146EFD5204603B03F
S31500003F7030BD00BF30B5054683B0072909D8DFE854
S31500003F8001F0121B20416204810CFFF7CFFF0028CD
S31500003F907ED10024204603B030BDFFF7C7FF0028BE
S31500003FA0F7D0052300E00023284685F8583803B0EB
S31500003FB0BDE83040FFF798BF03B0BDE83040FFF7DB
S31500003FC0B5BFFFF7B3FF04460028E3D0B5F8403885
S31500003FD041F2883243F48063A5F8403801920AE042
S31500003FE0019B002BD6D001F075F9019B013B002BFC
S31500003FF008BF00240193B5F8423801205B0501464D
S31500004000C8D4EDE7B0F8403823F48063A0F8403810
S31500004010FFF76AFF04460028BCD041F288330193BB
S315000040200AE0019B002BB5D001F054F9019B013B3E
S31500004030002B08BF00240193B5F8423801205A0529
S315000040400146A7D5EDE7B0F8403823F4407343F4B2
S31500004050807341F28832A0F84038012401920AE0C8
S31500004060019B002B96D001F035F9019B013B002BFB
S3150000407008BF00240193B5F842380120DB0501464C
S3150000408088D4EDE7FFF752FF002882D007238BE79D
S31500004090032389E7B0F8403823F4C053A0F840382A
S315000040A0704700BFB0F8403823F00103A0F840384D
S315000040B0704700BF202955D800212DE9F0474FF061
S315000040C0010C884615464FF0400E2BE001F1200406
S315000040D04FEA041A87F82068002B38D150F80A6096
S315000040E026F0FF5952F8316029F4E019C6F30A06A2
S315000040F049EA864640F80A6024010131065926F04D
S315000041000046065195F80590065909F0010926F072
S31500004110804646EA89762029065105F1080587F882
S3150000412020E811D02E794718002ECFD0012E08BFD7
S31500004130441801F101010CBF84F820884FF0000CEF
S31500004140202905F10805EDD16046BDE8F08752F853
S31500004150316001F120044FEA041926F0604640F868
S315000041600960C9E74FF0000C60467047203109012D
S315000041701BB122F0604242507047435823F0FF5370
S31500004180C2F30A0223F4E01343EA82424250704724
S3150000419020292ED82DE9F041043ADFF860E04FF0EF
S315000041A0FF376FF00F0500210FE050F82C6026F066
S315000041B0FF5424F4E01444EA884440F82C402F408D
S315000041C0013108294FEA05150CD052F8044F744501
S315000041D0F6D801F5807CC4F30A08002BE5D040F838
S315000041E02C40ECE77B1C06D0C0F828740120BDE803
S315000041F0F081002070470120BDE8F081FEFFFF1F1F
S31500004200012901D900207047B0F8403801F00301B8
S3150000421023F0060343EA4101A0F840180120704745
S31500004220012901D900207047B0F8403801F001019A
S3150000423023F0080343EAC101A0F8401801207047A3
S31500004240B0F8403823F01003A0F84038704700BF9C
S31500004250B0F8403823F02003A0F84038B0F84038D2
S3150000426043F0C003A0F84038704700BF30B5B0F83F
S31500004270403883B041F2883243F02003A0F840383A
S3150000428005460124019209E0019B6BB101F022F879
S31500004290019B013B002B08BF00240193B5F8403871
S315000042A001209B060146EFD4204603B030BD00BF77
S315000042B030B50B78012B83B00C4612D99DF804302B
S315000042C002A86FF3000300F8043D00F07BFE9DF8A2
S315000042D00430DB0702D4002003B030BD0123237075
S315000042E0F9E79DF80430054602A86FF3000300F8CD
S315000042F0043D00F067FE9DF80430DA070AD5012375
S3150000430023700C4B0320DB699847B0F5C87FE2D0D9
S31500004310227802E02278012AF3D0D5F8443802F058
S31500004320010223F0010313430120C5F8443803B00A
S3150000433030BD00BF3C9000000A79033A0C2A10B445
S3150000434003460C6840D8B4F5806F2CBF00200120CE
S315000043504A79013A062A33D88A79013A032A2FD8AC
S3150000436058B3D3F84428013C22F07F7204F03F048E
S3150000437022F4403242EA0442C3F84428D3F84428DF
S315000043800C7922F0704242EA0472C3F844284C7950
S31500004390D3F8442804F0070422F4E06242EA042237
S315000043A0C3F844288979D3F8442801F0030122F49C
S315000043B0405242EA0132C3F844285DF8044B704784
S315000043C000205DF8044B70470020C1E770B5054634
S315000043D0D0F8440882B0002310F0010401930E4681
S315000043E016D01149D5F84438D5F84428D5F84408EC
S315000043F0C2F3022202EB1373C0F309420132012019
S31500004400B1FBF2F10333B1FBF3F3336002B070BDDD
S31500004410064B01209B6901A9984710B1204602B0BE
S3150000442070BD0199DEE700BF00366E013C900000CA
S315000044306FF06043C0F82834704700BF70B40025A1
S315000044402C462E4605F120031B01C218C450537991
S3150000445023F00F03537100EB05110023CA18013333
S31500004460082B82F80642F9D10135202DA1F80E62FB
S31500004470A1F80E62E6D170BC704700BF014491F806
S31500004480200880F04000C0F380107047014491F886
S31500004490203813F0010005D091F82008C0F3400041
S315000044A080F00100704700BF0144402391F82008C6
S315000044B081F82038C0F38000704700BF203100EB40
S315000044C00110407900F00F00704700BF70B401F191
S315000044D0200426018559C5F380755D73EAB98259B2
S315000044E0C2F38A4200EB04141A60657905F00F05E1
S315000044F01D7165B10433002200EB0116B41804F5F2
S3150000450000740132A47903F8014FAA42F6D1084497
S31500004510402380F8203870BC70478259E2E700BF1C
S31500004520014491F82038DB091ABF91F8200800F001
S3150000453001000120704700BF0144002381F82038A4
S3150000454081F82038704700BFF0B501F1200E00EB6E
S315000045500E161379757903F00F0425F00F03234324
S315000045607371137963B1151D002300EB0117FC1855
S3150000457015F8016F84F80662147901339C42F6D867
S315000045804FEA0E1E527B50F80E3002F0010223F065
S315000045908043014443EA827340F80E30002381F8D9
S315000045A0203891F8203863F07F0381F82038F0BD79
S315000045B0022380F8533890F8523803F01F030B603B
S315000045C0704700BF002380F8533890F8523803F044
S315000045D01F030B60704700BF012380F8533890F823
S315000045E0523803F01F030B60704700BF90F84C3839
S315000045F043F0040380F84C3890F84C3843F0080335
S3150000460080F84C3890F84C3843F0100380F84C385A
S3150000461090F84C3843F0200380F84C38704700BFC0
S315000046204FF0FF33C0F82C34704700BF10B490F839
S315000046304D28044602F0FF033AB100220B6084F8CD
S315000046404D2801205DF8044B704718465DF8044B71
S31500004650704700BF10B5B0F8422892B24A6090F891
S3150000466058280C468979A2F10302B2FA82F252095D
S3150000467062F30001A17190F85828C9B2A2F10702AD
S31500004680B2FA82F2520962F38201A17190F85828B7
S31500004690C9B2A2F10502B2FA82F2520962F34101ED
S315000046A0A17190F84E28627390F84F28227382B059
S315000046B002A9002290F8503841F8042D2361FFF733
S315000046C085FE10B1019BA360012002B010BD00BFA2
S315000046D0802380F850387047B0F8423890F84D285B
S315000046E0C3F3C0131AB1002380F84D38012390F8A4
S315000046F05028520603D0002380F85038012318466C
S31500004700704700BF20B1034B1B6803600020704751
S3150000471001207047C490000030B12AB1012938B594
S31500004720C36903D0032038BD0120704715780446BD
S3150000473029461846FFF71EFC6571002038BD00BFEC
S31500004740002850D070B50379026882B00024302169
S3150000475001948DF80410ADF8062013B9072002B0B5
S3150000476070BD90F82020C56953B213F1210F04469D
S315000047700CD05B091D48203302F01F02012101FA0B
S3150000478002F240F823202846FFF730FF94F8212054
S3150000479053B213F1210F09D05B09203302F01F0237
S315000047A00121124801FA02F240F8232094F822204F
S315000047B053B213F1210F0CD05B09203302F01F0214
S315000047C001210A4E01FA02F2284646F82320FFF795
S315000047D027FF01A800F070FD01A800F007FE0020E9
S315000047E0207102B070BD0120704700BF00E100E0FB
S315000047F02DE9F041C8B1C2B10446C0690F4616465C
S31500004800FFF73CFE054658B9D4F81C8039464046A9
S31500004810FFF73CFE68B94EF660242046BDE8F081FD
S315000048204EF665242046BDE8F08101242046BDE809
S31500004830F08140463946FFF741FE08280BD94EF66F
S31500004840602440463946FFF72FFE4EF666230028C1
S3150000485018BF1C46E1E7A2793346404639462C4646
S31500004860FFF734FEEDE700BF60B15AB1F8B5044674
S31500004870C0690E461546FFF701FE012804D04EF624
S315000048806420F8BD012070472B79082B0BD86B7B71
S31500004890012B08D8E76931463846FFF741FE20B9B3
S315000048A04EF66320F8BD0320F8BD38463146FFF7C3
S315000048B043FE38463146A3792A68FFF757FC384647
S315000048C031462A46FFF740FE0020F8BD70B138B5E4
S315000048D071B10446C0690D46FFF7BCFE10B94EF62D
S315000048E0602038BD63792B70002038BD01207047E9
S315000048F0012038BD2DE9F04786B000230193044618
S31500004900002800F095800E46002900F091800A6A82
S31500004910002A00F08D80DFF8D4920A6802933021D5
S3150000492001AD0393049305938DF80410D9F80C3068
S31500004930ADF80620284602A99847DDF80880C4F895
S315000049401C800746002869D139460297D9F810908D
S31500004950284602AAC8479DF8080084F8200041B2FC
S3150000496011F1210F11D09E4A96F8243012680029C1
S31500004970C0F2A58001F160401B0100F56140DBB289
S3150000498080F8003352F831301C600321284602AA11
S31500004990C8479DF8080084F8210041B211F1210FA3
S315000049A010D08F4A96F82530126800297FDB01F176
S315000049B060401B0100F56140DBB280F8003352F81D
S315000049C031301C60042102AA2846C8479DF8080019
S315000049D084F8220041B211F1210F10D0804A96F8D6
S315000049E02630126800295ADB01F160401B0100F5F0
S315000049F06140DBB280F8003352F831301C60284643
S31500004A0000F0C0FC082862D0284600F059FC404659
S31500004A100321FFF7AFFA70B94EF66127284600F07A
S31500004A20E5FC284600F048FC384606B0BDE8F087AD
S31500004A30012701ADF2E740460421FFF79BFA002863
S31500004A40EAD04046D6F820A0FFF724FB4046FFF701
S31500004A5029FB317A4046FFF7D3FB4EF66229002840
S31500004A60317D404614BF00274F46FFF7D9FB00288B
S31500004A7008BF4F464046FFF7E3FB4046FFF7E8FB1B
S31500004A8040465146FFF714FC18BB40467168FFF7D5
S31500004A9053FC002840F0A1804EF66227BEE7514F36
S31500004AA000F00F001B010744DBB23B76A4E74D4F35
S31500004AB000F00F001B010744DBB23B767FE7494F4E
S31500004AC000F00F001B010744DBB23B765AE70A27CA
S31500004AD0A4E740467168FFF72FFC0028DCD0002FC2
S31500004AE09CD14046FFF7A4FC40460121FFF742FA5D
S31500004AF0002891D04046D6F82090FFF79FFC40460C
S31500004B00FFF7E6FD4046F1683269337AFFF7D2FADD
S31500004B100028C1D0D9F80420F168337A4046FFF75F
S31500004B2037FB0028B8D040463946FFF723FA00285D
S31500004B303FF472AF4046FFF799FB0028ACD04046E1
S31500004B40FFF7CAFD0028A7D194F820103368B26990
S31500004B50F56996F808E0F068367D23604BB262612D
S31500004B6013F1210F4FF00102A56184F806E0A06061
S31500004B70267467712271E56909D01B4801F01F018F
S31500004B805B098A4040F823202846FFF72FFD94F85A
S31500004B90212053B213F1210F08D002F01F025B0946
S31500004BA00121114801FA02F240F8232094F822204C
S31500004BB053B213F1210F3FF437AF5B0901210A4CC1
S31500004BC002F01F0201FA02F2284644F82320FFF7FA
S31500004BD027FD384606B0BDE8F0874FF4C8771DE7D5
S31500004BE04C950000FCEC00E000E100E0B48F000012
S31500004BF030B5C56987B00023044669462846029346
S31500004C0003930493059300930193FFF70FFD30B1CF
S31500004C109DF8003018070CD502238DF80C30636917
S31500004C202BB12168A2690291059202A8984707B0A4
S31500004C3030BDD90605D45A0707D504238DF80C30A4
S31500004C40EDE703238DF80C30E9E79B06E7D505234E
S31500004C50284601A98DF80C30FFF7AAFCDFE700BF54
S31500004C6010B5012001F09EFDEFF303830C4A103BC3
S31500004C705BB2126852F833301C687CB1E3696BB1E1
S31500004C80EFF30380103840B200F050FB2046FFF7E8
S31500004C90AFFF0120BDE8104001F082BD00BE10BD8F
S31500004CA04C9500004369B3B130B587B006A90446F8
S31500004CB0002541F8145DC069FFF784FCA3690199DA
S31500004CC0226805938DF80C5004910292636902A83C
S31500004CD0984707B030BD704710B5012001F062FD5E
S31500004CE0EFF303830C4A103B5BB2126852F8333081
S31500004CF01C687CB1E3696BB1EFF30380103840B2F6
S31500004D0000F014FB2046FFF7CDFF0120BDE8104060
S31500004D1001F046BD00BE10BD4C9500004369BBB115
S31500004D2010B586B006A90023044641F8143DC069B3
S31500004D30FFF752FC0199A3692268049101210593AA
S31500004D408DF80C100292636902A8984706B010BD50
S31500004D50704700BF10B5012001F024FDEFF3038377
S31500004D600C4A103B5BB2126852F833301C687CB1B7
S31500004D70E3696BB1EFF30380103840B200F0D6FA66
S31500004D802046FFF7CBFF0120BDE8104001F008BD2B
S31500004D9000BE10BD4C95000068B1084AB2F800315B
S31500004DA003F00103037092F800316FF3000382F8F9
S31500004DB00031002070470120704700BF00C001404D
S31500004DC0104991F8043143F0010381F80431B1F838
S31500004DD00431DB070CD54FF0FF3300E033B1B1F8F7
S31500004DE00421D20703F1FF33F8D40BB9142070471E
S31500004DF0044A92F8003160F3000382F80031002083
S31500004E00704700BF00C0014070B5214D82B02B68CD
S31500004E1098470120FFF7D4FF0021AE680320B04772
S31500004E2001211C4AEC698DF80110032301928DF8CB
S31500004E3000300320A047B0F5C97FFAD169460520A6
S31500004E40B0470520A047B0F5C97FFAD1002201245A
S31500004E50022369468DF806208DF801308DF8023060
S31500004E608DF805308DF800402B698DF803408DF8DC
S31500004E700440052098476B6D04209847AB6A20468E
S31500004E809847EB6A9847EB6C984702B070BD00BF35
S31500004E903C9000000000A04100B583B002A90023A9
S31500004EA041F8043D034B06209B699847019803B0DF
S31500004EB05DF804FB3C900000037870B423B1012B2D
S31500004EC034D0002070BC7047426836498A425BD9AC
S31500004ED0354B364EF1251D71197A41F004011972D0
S31500004EE0197AF02441F00801B24219721C7105D9F1
S31500004EF01D71197A41F0100119721C712C4B2D4944
S31500004F009A4294BF0123022303731C4691F81C3175
S31500004F1003F00703A3423FBF91F81C3123F00703B8
S31500004F20234381F81C310378012BCAD183681D4ABB
S31500004F30934233D81C4BF1221A711A7A22F00402DA
S31500004F401A721A7AF02122F008021A721971164B97
S31500004F50F1221A711A7AF02122F010021A721971CE
S31500004F601449037B91F81C2102F007029342A8D052
S31500004F7091F81C2103F0070322F00702134381F87E
S31500004F801C31002070BC70470B498A42B6D8094ACA
S31500004F90037392F81C31002070BC7047034A934299
S31500004FA0DED8D4E7000E27070020004000C2EB0B36
S31500004FB0FF67890900C00140FFB3C40400230370E2
S31500004FC0704700BF03786FF300030370704700BF9C
S31500004FD0037843F003030370704700BF014B03607F
S31500004FE0704700BFC8900000044B002103F1300257
S31500004FF043F8041B9342FBD1704700BF5404FE1FC5
S31500005000024B43F820100020704700BF5404FE1FD7
S3150000501008B57A4BB3F84031D90700F1C180774B18
S31500005020B3F840319A0700F1B080744BB3F84031C1
S315000050305B0700F19F80714BB3F84031180700F110
S315000050408E806E4BB3F84031D9067CD46B4BB3F8E7
S315000050504001C0F38010002869D1684BB3F8403195
S315000050601A0658D4654BB3F84031DB0547D4634B79
S31500005070B3F84031980536D4604BB3F84031590542
S3150000508024D45E4BB3F840311A0512D45B4BB3F807
S315000050904031DB0400D408BD594BDB6A002B40F0DD
S315000050A0AA80564AB2F8303143F48053A2F8303120
S315000050B008BD534B9B6A002B40F09A804F4AB2F8CA
S315000050C0303143F40063A2F83031DFE74C4B5B6AC2
S315000050D0002B40F08A80494AB2F8303143F48063AD
S315000050E0A2F83031CDE7464B1B6A002B7AD1434AF2
S315000050F0B2F8303143F40073A2F83031BCE7404BCC
S31500005100DB69002B6BD13D4AB2F8303143F4807332
S31500005110A2F83031ABE73A4B1B68002B5CD1374A1B
S31500005120B2F8303143F08003A2F830319AE7344BBD
S315000051305B68002B4ED1314AB2F8303143F0400360
S31500005140A2F8303189E72E4B9B69002B3FD12B4AC1
S31500005150B2F8303143F01003A2F8303176E7284B2D
S315000051605B698BBB254AB2F8303143F00803A2F8DD
S31500005170303166E7224B1B691BBB204AB2F830313F
S3150000518043F00403A2F8303155E71D4B9B68ABB9D9
S315000051901A4AB2F8303143F00203A2F8303144E73C
S315000051A0174BDB683BB9154AB2F8303143F00103BF
S315000051B0A2F8303133E703209847F4E702209847F6
S315000051C0E6E704209847D8E705209847CAE706206F
S315000051D09847BCE79847AEE7002098479FE7072027
S315000051E0984790E70820984781E70920984772E793
S315000051F00A20984762E70B20984752E70060004074
S315000052005404FE1F0278452A2BD8294B9B5CFF2BA2
S3150000521025D0F0B403F020064788407806F0FF0456
S3150000522003F01F05FEB101242B2A04FA05F634D03B
S31500005230332A01D1012836D09B091E4A52F8233061
S3150000524041BBEFF31082012181F31088196821EA2E
S315000052500601196082F310880020F0BC7047032015
S31500005260704701207047134E38449B092D1A0122BE
S3150000527056F8233002FA05F60029E2D0EFF3108043
S3150000528082F3108819683143196080F3108820462C
S31500005290F0BC70470320F0BC7047072FCCD901350E
S315000052A004FA05F6C8E76A1C00FA02F6C4E700BF6E
S315000052B004950000F49400000121FFF7A3BF00BF8E
S315000052C00021FFF79FBF00BFA0F101000028FBD11E
S315000052D0704700BF2DE9D04301FB00F4FFF7DCFD6A
S315000052E04FF47A71A4FB018900274FF0FF364F4532
S315000052F008BF46450C4BB3FBF0F005D3B8FBF0F006
S31500005300800860B9BDE8D0838000B4FBF0F0A0FB54
S3150000531001018F4208BF8642F3D24FF0FF30BDE84D
S31500005320D043FFF7D1BF00BF00CA9A3B002808DB75
S31500005330800000F1804000F5C640036823F4803306
S31500005340036070470B4A0C4B10B49B1A0B4CDB08DE
S31500005350236063B10A4800219388C3F3090340F828
S31500005360043F236801318B4202F10802F4D85DF84C
S31500005370044B704700050000380500008404FE1F3A
S31500005380FC620040164B10B41C687CB1154B0068DB
S315000053901A681368984218BF002304D10AE052F82D
S315000053A0041F814207D00133A342F8D103205DF8E0
S315000053B0044B704700230C4A12680121134403E092
S315000053C0C3E8401F0028F2D0D3E84F2F12F0FF0F9A
S315000053D0F6D0BFF32F8F08205DF8044B704700BF4F
S315000053E08804FE1F8C04FE1F9004FE1F0F4B10B492
S315000053F01C687CB10E4B00681A681368984218BF87
S31500005400002304D109E052F8041F814206D001337B
S31500005410A342F8D15DF8044B70470023054A126891
S315000054200021D1545DF8044B704700BF8804FE1F6D
S315000054308C04FE1F9004FE1F38B50A4C0A4D0B481B
S315000054400B490C4B0C4A04602D1BAD080D601A600D
S315000054503DB104EB850520460434FFF7C7FFAC4297
S31500005460F9D138BD38050000E80600008C04FE1F9F
S315000054708804FE1F9004FE1F8003FE1FEFF31081B9
S31500005480012383F31088124B33F8102092B22AB10D
S3150000549033F81020013A92B223F8102033F8103076
S315000054A09BB293B910B40B4A0B4CB2F8FE3334F8E6
S315000054B010009BB243F4254323EA0003A2F8FE330F
S315000054C081F310885DF8044B704781F310887047AC
S315000054D09404FE1F00E001405095000030B4EFF345
S315000054E01084012383F310880D4A32F810309BB2E2
S315000054F05BB90C4D0C49B5F8FE3331F810109BB270
S3150000550043F425430B43A5F8FE3332F8103001333C
S315000055109BB222F8103084F3108830BC704700BF6D
S315000055209404FE1F00E0014050950000024B00224B
S315000055301A805A809A8070479404FE1F0C4A08B558
S3150000554013688BB1033020F003000A4918448842DF
S3150000555002D81060184608BD02F07EFF0C230360D7
S315000055604FF0FF33184608BD034B1360EAE700BF50
S315000055709C04FE1F681AFE1F680AFE1F00BE7047C5
S3150000558008B500F005F800F0CFF9FEE7704700BF58
S31500005590224AD2F8883043F4700310B50020C2F8CE
S315000055A08830FFF7F3FFFFF71FFD1D4B1B68984779
S315000055B0FFF7BCFFFFF728FC1A4A1B4B1B481B686A
S315000055C00024148098471A4A1A4B9B1A05D0134494
S315000055D0214603F8011D9A42FBD11748174BC01A02
S315000055E007D0174A184412F8011B03F8011B83421F
S315000055F0F9D1FFF751FC134B18600120FFF7C6FFE6
S31500005600FFF71AFFFFF79EFE0F4B10481B689847DF
S315000056100020BDE8104000F01BB800BF00ED00E020
S31500005620B48F00004004FE1FE88E0000E0950000E5
S315000056302404FE1F640AFE1FEC03FE1FC001FE1FAA
S31500005640689C0000A004FE1FD08F00005895000043
S3150000565000F044B882B04FF0C84300210091009A90
S315000056601A7D61F300021A751A8DD0B1202161F3FB
S315000056700F221A851A8D4FF0C04142F080021A851A
S315000056800A68009240F6FF721946019204E0019BF7
S31500005690013B0193019A12B18A6A5206F7D502B00C
S315000056A070474FF0C04142F47F421A850A68009263
S315000056B01A8D60F3C7121A850A68009240F6FF71C8
S315000056C01A46019105E0019B013B0193019B002BCA
S315000056D0E5D0936A5B06F6D402B07047F8B54D493B
S315000056E00A684FF0C844002322F0400210200A60E6
S315000056F02063A36123626363C4F80438227A63F3E8
S3150000570004022272237DFF2243F0010323752261E6
S31500005710237D662243F0010323752261237D9922AE
S3150000572043F0010323752261237D43F001032375B2
S3150000573001212320FFF7CEFD9F232361364B2269EB
S315000057401A7022695A702169227D997042F001020D
S3150000575022751A78EF2A04D000221A705A709A70AD
S31500005760F8BD5A78402AF7D19A78172AF4D105203D
S3150000577020612A4923690B70227D294B42F00102E0
S3150000578035262275266122691A70227D42F00102B1
S315000057902275228D042565F303022285227950277E
S315000057A065F3030222712761227D42F00102227510
S315000057B01A78012742F002021A7027610A782261DC
S315000057C01A782261227D3A4322752561227D3A4369
S315000057D02275228860F302022280206122690A7003
S315000057E0227D3A432275266122691A70237D3B4346
S315000057F02375238843F040032380A369DB074FF01A
S31500005800C845FAD40120FFF725FF2B7D6FF300036F
S315000058102B75F8BD00700440A404FE1FA804FE1FEB
S31500005820AC04FE1F10B510484FF0FF3100F0B0FC7D
S3150000583008B100BEFDE70D4B1A781AB1BDE810405D
S3150000584000F0CEB801220A4C1A7000F04BF823681B
S31500005850013B2360002BF1D0034800F0AFFC002889
